{
  "contractName": "EthToSmthSwaps",
  "abi": [
    {
      "inputs": [],
      "payable": false,
      "stateMutability": "nonpayable",
      "type": "constructor"
    },
    {
      "anonymous": false,
      "inputs": [
        {
          "indexed": false,
          "internalType": "address",
          "name": "_buyer",
          "type": "address"
        },
        {
          "indexed": false,
          "internalType": "address",
          "name": "_seller",
          "type": "address"
        }
      ],
      "name": "Close",
      "type": "event"
    },
    {
      "anonymous": false,
      "inputs": [
        {
          "indexed": false,
          "internalType": "address",
          "name": "_buyer",
          "type": "address"
        },
        {
          "indexed": false,
          "internalType": "address",
          "name": "_seller",
          "type": "address"
        },
        {
          "indexed": false,
          "internalType": "uint256",
          "name": "_value",
          "type": "uint256"
        },
        {
          "indexed": false,
          "internalType": "bytes32",
          "name": "_secretHash",
          "type": "bytes32"
        },
        {
          "indexed": false,
          "internalType": "uint256",
          "name": "createdAt",
          "type": "uint256"
        }
      ],
      "name": "CreateSwap",
      "type": "event"
    },
    {
      "anonymous": false,
      "inputs": [
        {
          "indexed": false,
          "internalType": "address",
          "name": "_buyer",
          "type": "address"
        },
        {
          "indexed": false,
          "internalType": "address",
          "name": "_seller",
          "type": "address"
        },
        {
          "indexed": false,
          "internalType": "bytes32",
          "name": "_secretHash",
          "type": "bytes32"
        }
      ],
      "name": "Refund",
      "type": "event"
    },
    {
      "anonymous": false,
      "inputs": [
        {
          "indexed": false,
          "internalType": "address",
          "name": "_buyer",
          "type": "address"
        },
        {
          "indexed": false,
          "internalType": "address",
          "name": "_seller",
          "type": "address"
        },
        {
          "indexed": false,
          "internalType": "bytes32",
          "name": "_secretHash",
          "type": "bytes32"
        },
        {
          "indexed": false,
          "internalType": "uint256",
          "name": "withdrawnAt",
          "type": "uint256"
        }
      ],
      "name": "Withdraw",
      "type": "event"
    },
    {
      "constant": true,
      "inputs": [],
      "name": "owner",
      "outputs": [
        {
          "internalType": "address",
          "name": "",
          "type": "address"
        }
      ],
      "payable": false,
      "stateMutability": "view",
      "type": "function"
    },
    {
      "constant": true,
      "inputs": [],
      "name": "ratingContractAddress",
      "outputs": [
        {
          "internalType": "address",
          "name": "",
          "type": "address"
        }
      ],
      "payable": false,
      "stateMutability": "view",
      "type": "function"
    },
    {
      "constant": true,
      "inputs": [
        {
          "internalType": "address",
          "name": "",
          "type": "address"
        },
        {
          "internalType": "address",
          "name": "",
          "type": "address"
        }
      ],
      "name": "swaps",
      "outputs": [
        {
          "internalType": "address payable",
          "name": "targetWallet",
          "type": "address"
        },
        {
          "internalType": "bytes32",
          "name": "secret",
          "type": "bytes32"
        },
        {
          "internalType": "bytes32",
          "name": "secretHash",
          "type": "bytes32"
        },
        {
          "internalType": "uint256",
          "name": "createdAt",
          "type": "uint256"
        },
        {
          "internalType": "uint256",
          "name": "balance",
          "type": "uint256"
        }
      ],
      "payable": false,
      "stateMutability": "view",
      "type": "function"
    },
    {
      "constant": false,
      "inputs": [
        {
          "internalType": "bytes32",
          "name": "_secretHash",
          "type": "bytes32"
        },
        {
          "internalType": "address payable",
          "name": "_participantAddress",
          "type": "address"
        }
      ],
      "name": "createSwap",
      "outputs": [],
      "payable": true,
      "stateMutability": "payable",
      "type": "function"
    },
    {
      "constant": false,
      "inputs": [
        {
          "internalType": "bytes32",
          "name": "_secretHash",
          "type": "bytes32"
        },
        {
          "internalType": "address payable",
          "name": "_participantAddress",
          "type": "address"
        },
        {
          "internalType": "address payable",
          "name": "_targetWallet",
          "type": "address"
        }
      ],
      "name": "createSwapTarget",
      "outputs": [],
      "payable": true,
      "stateMutability": "payable",
      "type": "function"
    },
    {
      "constant": true,
      "inputs": [
        {
          "internalType": "address",
          "name": "_ownerAddress",
          "type": "address"
        }
      ],
      "name": "getBalance",
      "outputs": [
        {
          "internalType": "uint256",
          "name": "",
          "type": "uint256"
        }
      ],
      "payable": false,
      "stateMutability": "view",
      "type": "function"
    },
    {
      "constant": true,
      "inputs": [
        {
          "internalType": "address",
          "name": "_ownerAddress",
          "type": "address"
        }
      ],
      "name": "getTargetWallet",
      "outputs": [
        {
          "internalType": "address",
          "name": "",
          "type": "address"
        }
      ],
      "payable": false,
      "stateMutability": "view",
      "type": "function"
    },
    {
      "constant": false,
      "inputs": [
        {
          "internalType": "bytes32",
          "name": "_secret",
          "type": "bytes32"
        },
        {
          "internalType": "address",
          "name": "_ownerAddress",
          "type": "address"
        }
      ],
      "name": "withdraw",
      "outputs": [],
      "payable": false,
      "stateMutability": "nonpayable",
      "type": "function"
    },
    {
      "constant": false,
      "inputs": [
        {
          "internalType": "bytes32",
          "name": "_secret",
          "type": "bytes32"
        },
        {
          "internalType": "address",
          "name": "participantAddress",
          "type": "address"
        }
      ],
      "name": "withdrawNoMoney",
      "outputs": [],
      "payable": false,
      "stateMutability": "nonpayable",
      "type": "function"
    },
    {
      "constant": false,
      "inputs": [
        {
          "internalType": "bytes32",
          "name": "_secret",
          "type": "bytes32"
        },
        {
          "internalType": "address",
          "name": "_ownerAddress",
          "type": "address"
        },
        {
          "internalType": "address",
          "name": "participantAddress",
          "type": "address"
        }
      ],
      "name": "withdrawOther",
      "outputs": [],
      "payable": false,
      "stateMutability": "nonpayable",
      "type": "function"
    },
    {
      "constant": true,
      "inputs": [
        {
          "internalType": "address",
          "name": "_participantAddress",
          "type": "address"
        }
      ],
      "name": "getSecret",
      "outputs": [
        {
          "internalType": "bytes32",
          "name": "",
          "type": "bytes32"
        }
      ],
      "payable": false,
      "stateMutability": "view",
      "type": "function"
    },
    {
      "constant": false,
      "inputs": [
        {
          "internalType": "address",
          "name": "_participantAddress",
          "type": "address"
        }
      ],
      "name": "refund",
      "outputs": [],
      "payable": false,
      "stateMutability": "nonpayable",
      "type": "function"
    }
  ],
  "bytecode": "0x6080604052610e1060025534801561001657600080fd5b50336000806101000a81548173ffffffffffffffffffffffffffffffffffffffff021916908373ffffffffffffffffffffffffffffffffffffffff160217905550611d10806100666000396000f3fe6080604052600436106100a75760003560e01c8063d348b5a411610064578063d348b5a414610339578063dcb5930a146103b4578063e03ec01d1461040b578063efaf42021461049c578063f8b2cb4f1461050a578063fa89401a1461056f576100a7565b80631b258d50146100ac5780632253317d14610107578063284180fc146101555780635721b89a146101ba5780638da5cb5b1461021557806399caf9751461026c575b600080fd5b3480156100b857600080fd5b50610105600480360360408110156100cf57600080fd5b8101908080359060200190929190803573ffffffffffffffffffffffffffffffffffffffff1690602001909291905050506105c0565b005b6101536004803603604081101561011d57600080fd5b8101908080359060200190929190803573ffffffffffffffffffffffffffffffffffffffff1690602001909291905050506109d8565b005b34801561016157600080fd5b506101a46004803603602081101561017857600080fd5b81019080803573ffffffffffffffffffffffffffffffffffffffff169060200190929190505050610c52565b6040518082815260200191505060405180910390f35b3480156101c657600080fd5b50610213600480360360408110156101dd57600080fd5b8101908080359060200190929190803573ffffffffffffffffffffffffffffffffffffffff169060200190929190505050610cdb565b005b34801561022157600080fd5b5061022a6110f3565b604051808273ffffffffffffffffffffffffffffffffffffffff1673ffffffffffffffffffffffffffffffffffffffff16815260200191505060405180910390f35b34801561027857600080fd5b506102db6004803603604081101561028f57600080fd5b81019080803573ffffffffffffffffffffffffffffffffffffffff169060200190929190803573ffffffffffffffffffffffffffffffffffffffff169060200190929190505050611118565b604051808673ffffffffffffffffffffffffffffffffffffffff1673ffffffffffffffffffffffffffffffffffffffff1681526020018581526020018481526020018381526020018281526020019550505050505060405180910390f35b34801561034557600080fd5b506103b26004803603606081101561035c57600080fd5b8101908080359060200190929190803573ffffffffffffffffffffffffffffffffffffffff169060200190929190803573ffffffffffffffffffffffffffffffffffffffff16906020019092919050505061117b565b005b3480156103c057600080fd5b506103c9611594565b604051808273ffffffffffffffffffffffffffffffffffffffff1673ffffffffffffffffffffffffffffffffffffffff16815260200191505060405180910390f35b34801561041757600080fd5b5061045a6004803603602081101561042e57600080fd5b81019080803573ffffffffffffffffffffffffffffffffffffffff1690602001909291905050506115ba565b604051808273ffffffffffffffffffffffffffffffffffffffff1673ffffffffffffffffffffffffffffffffffffffff16815260200191505060405180910390f35b610508600480360360608110156104b257600080fd5b8101908080359060200190929190803573ffffffffffffffffffffffffffffffffffffffff169060200190929190803573ffffffffffffffffffffffffffffffffffffffff169060200190929190505050611663565b005b34801561051657600080fd5b506105596004803603602081101561052d57600080fd5b81019080803573ffffffffffffffffffffffffffffffffffffffff1690602001909291905050506118de565b6040518082815260200191505060405180910390f35b34801561057b57600080fd5b506105be6004803603602081101561059257600080fd5b81019080803573ffffffffffffffffffffffffffffffffffffffff169060200190929190505050611967565b005b6105c8611c90565b600360008373ffffffffffffffffffffffffffffffffffffffff1673ffffffffffffffffffffffffffffffffffffffff16815260200190815260200160002060003373ffffffffffffffffffffffffffffffffffffffff1673ffffffffffffffffffffffffffffffffffffffff1681526020019081526020016000206040518060a00160405290816000820160009054906101000a900473ffffffffffffffffffffffffffffffffffffffff1673ffffffffffffffffffffffffffffffffffffffff1673ffffffffffffffffffffffffffffffffffffffff1681526020016001820154815260200160028201548152602001600382015481526020016004820154815250509050600283604051602001808281526020019150506040516020818303038152906040526040518082805190602001908083835b602083106107245780518252602082019150602081019050602083039250610701565b6001836020036101000a038019825116818451168082178552505050505050905001915050602060405180830381855afa158015610766573d6000803e3d6000fd5b5050506040513d602081101561077b57600080fd5b810190808051906020019092919050505081604001511461079b57600080fd5b60008160800151116107ac57600080fd5b426107c66002548360600151611ba790919063ffffffff16565b116107d057600080fd5b806000015173ffffffffffffffffffffffffffffffffffffffff166108fc82608001519081150290604051600060405180830381858888f1935050505015801561081e573d6000803e3d6000fd5b506000600360008473ffffffffffffffffffffffffffffffffffffffff1673ffffffffffffffffffffffffffffffffffffffff16815260200190815260200160002060003373ffffffffffffffffffffffffffffffffffffffff1673ffffffffffffffffffffffffffffffffffffffff1681526020019081526020016000206004018190555082600360008473ffffffffffffffffffffffffffffffffffffffff1673ffffffffffffffffffffffffffffffffffffffff16815260200190815260200160002060003373ffffffffffffffffffffffffffffffffffffffff1673ffffffffffffffffffffffffffffffffffffffff168152602001908152602001600020600101819055507fb13d2de1efe982bfc7adb31ad7c1c943b95cfc9f3bdb2cd46ad9b109dd7002c33383836040015142604051808573ffffffffffffffffffffffffffffffffffffffff1673ffffffffffffffffffffffffffffffffffffffff1681526020018473ffffffffffffffffffffffffffffffffffffffff1673ffffffffffffffffffffffffffffffffffffffff16815260200183815260200182815260200194505050505060405180910390a1505050565b600034116109e557600080fd5b6000600360003373ffffffffffffffffffffffffffffffffffffffff1673ffffffffffffffffffffffffffffffffffffffff16815260200190815260200160002060008373ffffffffffffffffffffffffffffffffffffffff1673ffffffffffffffffffffffffffffffffffffffff1681526020019081526020016000206004015414610a7157600080fd5b6040518060a001604052808273ffffffffffffffffffffffffffffffffffffffff1681526020016000801b815260200183815260200142815260200134815250600360003373ffffffffffffffffffffffffffffffffffffffff1673ffffffffffffffffffffffffffffffffffffffff16815260200190815260200160002060008373ffffffffffffffffffffffffffffffffffffffff1673ffffffffffffffffffffffffffffffffffffffff16815260200190815260200160002060008201518160000160006101000a81548173ffffffffffffffffffffffffffffffffffffffff021916908373ffffffffffffffffffffffffffffffffffffffff160217905550602082015181600101556040820151816002015560608201518160030155608082015181600401559050507fe7bd2ca959c36c6e133f0cbd79ace86d98345b3fda3c1a611d601ca69f81a6258133348542604051808673ffffffffffffffffffffffffffffffffffffffff1673ffffffffffffffffffffffffffffffffffffffff1681526020018573ffffffffffffffffffffffffffffffffffffffff1673ffffffffffffffffffffffffffffffffffffffff1681526020018481526020018381526020018281526020019550505050505060405180910390a15050565b6000600360003373ffffffffffffffffffffffffffffffffffffffff1673ffffffffffffffffffffffffffffffffffffffff16815260200190815260200160002060008373ffffffffffffffffffffffffffffffffffffffff1673ffffffffffffffffffffffffffffffffffffffff168152602001908152602001600020600101549050919050565b610ce3611c90565b600360003373ffffffffffffffffffffffffffffffffffffffff1673ffffffffffffffffffffffffffffffffffffffff16815260200190815260200160002060008373ffffffffffffffffffffffffffffffffffffffff1673ffffffffffffffffffffffffffffffffffffffff1681526020019081526020016000206040518060a00160405290816000820160009054906101000a900473ffffffffffffffffffffffffffffffffffffffff1673ffffffffffffffffffffffffffffffffffffffff1673ffffffffffffffffffffffffffffffffffffffff1681526020016001820154815260200160028201548152602001600382015481526020016004820154815250509050600283604051602001808281526020019150506040516020818303038152906040526040518082805190602001908083835b60208310610e3f5780518252602082019150602081019050602083039250610e1c565b6001836020036101000a038019825116818451168082178552505050505050905001915050602060405180830381855afa158015610e81573d6000803e3d6000fd5b5050506040513d6020811015610e9657600080fd5b8101908080519060200190929190505050816040015114610eb657600080fd5b6000816080015111610ec757600080fd5b42610ee16002548360600151611ba790919063ffffffff16565b11610eeb57600080fd5b806000015173ffffffffffffffffffffffffffffffffffffffff166108fc82608001519081150290604051600060405180830381858888f19350505050158015610f39573d6000803e3d6000fd5b506000600360003373ffffffffffffffffffffffffffffffffffffffff1673ffffffffffffffffffffffffffffffffffffffff16815260200190815260200160002060008473ffffffffffffffffffffffffffffffffffffffff1673ffffffffffffffffffffffffffffffffffffffff1681526020019081526020016000206004018190555082600360003373ffffffffffffffffffffffffffffffffffffffff1673ffffffffffffffffffffffffffffffffffffffff16815260200190815260200160002060008473ffffffffffffffffffffffffffffffffffffffff1673ffffffffffffffffffffffffffffffffffffffff168152602001908152602001600020600101819055507fb13d2de1efe982bfc7adb31ad7c1c943b95cfc9f3bdb2cd46ad9b109dd7002c38233836040015142604051808573ffffffffffffffffffffffffffffffffffffffff1673ffffffffffffffffffffffffffffffffffffffff1681526020018473ffffffffffffffffffffffffffffffffffffffff1673ffffffffffffffffffffffffffffffffffffffff16815260200183815260200182815260200194505050505060405180910390a1505050565b6000809054906101000a900473ffffffffffffffffffffffffffffffffffffffff1681565b6003602052816000526040600020602052806000526040600020600091509150508060000160009054906101000a900473ffffffffffffffffffffffffffffffffffffffff16908060010154908060020154908060030154908060040154905085565b611183611c90565b600360008473ffffffffffffffffffffffffffffffffffffffff1673ffffffffffffffffffffffffffffffffffffffff16815260200190815260200160002060008373ffffffffffffffffffffffffffffffffffffffff1673ffffffffffffffffffffffffffffffffffffffff1681526020019081526020016000206040518060a00160405290816000820160009054906101000a900473ffffffffffffffffffffffffffffffffffffffff1673ffffffffffffffffffffffffffffffffffffffff1673ffffffffffffffffffffffffffffffffffffffff1681526020016001820154815260200160028201548152602001600382015481526020016004820154815250509050600284604051602001808281526020019150506040516020818303038152906040526040518082805190602001908083835b602083106112df57805182526020820191506020810190506020830392506112bc565b6001836020036101000a038019825116818451168082178552505050505050905001915050602060405180830381855afa158015611321573d6000803e3d6000fd5b5050506040513d602081101561133657600080fd5b810190808051906020019092919050505081604001511461135657600080fd5b600081608001511161136757600080fd5b426113816002548360600151611ba790919063ffffffff16565b1161138b57600080fd5b806000015173ffffffffffffffffffffffffffffffffffffffff166108fc82608001519081150290604051600060405180830381858888f193505050501580156113d9573d6000803e3d6000fd5b506000600360008573ffffffffffffffffffffffffffffffffffffffff1673ffffffffffffffffffffffffffffffffffffffff16815260200190815260200160002060008473ffffffffffffffffffffffffffffffffffffffff1673ffffffffffffffffffffffffffffffffffffffff1681526020019081526020016000206004018190555083600360008573ffffffffffffffffffffffffffffffffffffffff1673ffffffffffffffffffffffffffffffffffffffff16815260200190815260200160002060008473ffffffffffffffffffffffffffffffffffffffff1673ffffffffffffffffffffffffffffffffffffffff168152602001908152602001600020600101819055507fb13d2de1efe982bfc7adb31ad7c1c943b95cfc9f3bdb2cd46ad9b109dd7002c38284836040015142604051808573ffffffffffffffffffffffffffffffffffffffff1673ffffffffffffffffffffffffffffffffffffffff1681526020018473ffffffffffffffffffffffffffffffffffffffff1673ffffffffffffffffffffffffffffffffffffffff16815260200183815260200182815260200194505050505060405180910390a150505050565b600160009054906101000a900473ffffffffffffffffffffffffffffffffffffffff1681565b6000600360008373ffffffffffffffffffffffffffffffffffffffff1673ffffffffffffffffffffffffffffffffffffffff16815260200190815260200160002060003373ffffffffffffffffffffffffffffffffffffffff1673ffffffffffffffffffffffffffffffffffffffff16815260200190815260200160002060000160009054906101000a900473ffffffffffffffffffffffffffffffffffffffff169050919050565b6000341161167057600080fd5b6000600360003373ffffffffffffffffffffffffffffffffffffffff1673ffffffffffffffffffffffffffffffffffffffff16815260200190815260200160002060008473ffffffffffffffffffffffffffffffffffffffff1673ffffffffffffffffffffffffffffffffffffffff16815260200190815260200160002060040154146116fc57600080fd5b6040518060a001604052808273ffffffffffffffffffffffffffffffffffffffff1681526020016000801b815260200184815260200142815260200134815250600360003373ffffffffffffffffffffffffffffffffffffffff1673ffffffffffffffffffffffffffffffffffffffff16815260200190815260200160002060008473ffffffffffffffffffffffffffffffffffffffff1673ffffffffffffffffffffffffffffffffffffffff16815260200190815260200160002060008201518160000160006101000a81548173ffffffffffffffffffffffffffffffffffffffff021916908373ffffffffffffffffffffffffffffffffffffffff160217905550602082015181600101556040820151816002015560608201518160030155608082015181600401559050507fe7bd2ca959c36c6e133f0cbd79ace86d98345b3fda3c1a611d601ca69f81a6258233348642604051808673ffffffffffffffffffffffffffffffffffffffff1673ffffffffffffffffffffffffffffffffffffffff1681526020018573ffffffffffffffffffffffffffffffffffffffff1673ffffffffffffffffffffffffffffffffffffffff1681526020018481526020018381526020018281526020019550505050505060405180910390a1505050565b6000600360008373ffffffffffffffffffffffffffffffffffffffff1673ffffffffffffffffffffffffffffffffffffffff16815260200190815260200160002060003373ffffffffffffffffffffffffffffffffffffffff1673ffffffffffffffffffffffffffffffffffffffff168152602001908152602001600020600401549050919050565b61196f611c90565b600360003373ffffffffffffffffffffffffffffffffffffffff1673ffffffffffffffffffffffffffffffffffffffff16815260200190815260200160002060008373ffffffffffffffffffffffffffffffffffffffff1673ffffffffffffffffffffffffffffffffffffffff1681526020019081526020016000206040518060a00160405290816000820160009054906101000a900473ffffffffffffffffffffffffffffffffffffffff1673ffffffffffffffffffffffffffffffffffffffff1673ffffffffffffffffffffffffffffffffffffffff16815260200160018201548152602001600282015481526020016003820154815260200160048201548152505090506000816080015111611a8757600080fd5b42611aa16002548360600151611ba790919063ffffffff16565b10611aab57600080fd5b3373ffffffffffffffffffffffffffffffffffffffff166108fc82608001519081150290604051600060405180830381858888f19350505050158015611af5573d6000803e3d6000fd5b50611b003383611bc6565b7fb4745401d1a546e217808c9340502b877f0332abb03a33df322d7da9dd2d9c0c82338360400151604051808473ffffffffffffffffffffffffffffffffffffffff1673ffffffffffffffffffffffffffffffffffffffff1681526020018373ffffffffffffffffffffffffffffffffffffffff1673ffffffffffffffffffffffffffffffffffffffff168152602001828152602001935050505060405180910390a15050565b600080828401905083811015611bbc57600080fd5b8091505092915050565b600360008373ffffffffffffffffffffffffffffffffffffffff1673ffffffffffffffffffffffffffffffffffffffff16815260200190815260200160002060008273ffffffffffffffffffffffffffffffffffffffff1673ffffffffffffffffffffffffffffffffffffffff168152602001908152602001600020600080820160006101000a81549073ffffffffffffffffffffffffffffffffffffffff0219169055600182016000905560028201600090556003820160009055600482016000905550505050565b6040518060a00160405280600073ffffffffffffffffffffffffffffffffffffffff16815260200160008019168152602001600080191681526020016000815260200160008152509056fea265627a7a7231582056b2e02712cae3f0ae9590757c88cfee3c07fb9c0722cb3f6c7e463b1e74d83c64736f6c63430005100032",
  "source": "pragma solidity ^0.5.0;\n\nimport './SafeMath.sol';\n\ncontract EthToSmthSwaps {\n\n  using SafeMath for uint;\n\n  address public owner;\n  address public ratingContractAddress;\n  uint256 SafeTime = 1 hours; // atomic swap timeOut\n\n  struct Swap {\n    address payable targetWallet;\n    bytes32 secret;\n    bytes32 secretHash;\n    uint256 createdAt;\n    uint256 balance;\n  }\n\n  // ETH Owner => Smth Owner => Swap\n  mapping(address => mapping(address => Swap)) public swaps;\n\n  constructor () public {\n    owner = msg.sender;\n  }\n\n  event CreateSwap(address _buyer, address _seller, uint256 _value, bytes32 _secretHash, uint256 createdAt);\n\n  // ETH Owner creates Swap with secretHash\n  // ETH Owner make token deposit\n  function createSwap(bytes32 _secretHash, address payable _participantAddress) public payable {\n    require(msg.value > 0);\n    require(swaps[msg.sender][_participantAddress].balance == uint256(0));\n\n    swaps[msg.sender][_participantAddress] = Swap(\n      _participantAddress,\n      bytes32(0),\n      _secretHash,\n      now,\n      msg.value\n    );\n\n    emit CreateSwap(_participantAddress, msg.sender, msg.value, _secretHash, now);\n  }\n\n  // ETH Owner creates Swap with secretHash\n  // ETH Owner make token deposit\n  function createSwapTarget(bytes32 _secretHash, address payable _participantAddress, address payable _targetWallet) public payable {\n    require(msg.value > 0);\n    require(swaps[msg.sender][_participantAddress].balance == uint256(0));\n\n    swaps[msg.sender][_participantAddress] = Swap(\n      _targetWallet,\n      bytes32(0),\n      _secretHash,\n      now,\n      msg.value\n    );\n\n    emit CreateSwap(_participantAddress, msg.sender, msg.value, _secretHash, now);\n  }\n\n  function getBalance(address _ownerAddress) public view returns (uint256) {\n    return swaps[_ownerAddress][msg.sender].balance;\n  }\n\n  // Get target wallet (buyer check)\n  function getTargetWallet(address _ownerAddress) public view returns (address) {\n      return swaps[_ownerAddress][msg.sender].targetWallet;\n  }\n\n  event Withdraw(address _buyer, address _seller, bytes32 _secretHash, uint256 withdrawnAt);\n\n  // Smth Owner withdraw money and adds secret key to swap\n  // Smth Owner receive +1 reputation\n  function withdraw(bytes32 _secret, address _ownerAddress) public {\n    Swap memory swap = swaps[_ownerAddress][msg.sender];\n\n    require(swap.secretHash == sha256(abi.encodePacked(_secret)));\n    require(swap.balance > uint256(0));\n    require(swap.createdAt.add(SafeTime) > now);\n\n    swap.targetWallet.transfer(swap.balance);\n\n    swaps[_ownerAddress][msg.sender].balance = 0;\n    swaps[_ownerAddress][msg.sender].secret = _secret;\n\n    emit Withdraw(msg.sender, _ownerAddress, swap.secretHash, now);\n  }\n  // Smth Owner withdraw money and adds secret key to swap\n  // Smth Owner receive +1 reputation\n  function withdrawNoMoney(bytes32 _secret, address participantAddress) public {\n    Swap memory swap = swaps[msg.sender][participantAddress];\n\n    require(swap.secretHash == sha256(abi.encodePacked(_secret)));\n    require(swap.balance > uint256(0));\n    require(swap.createdAt.add(SafeTime) > now);\n\n    swap.targetWallet.transfer(swap.balance);\n\n    swaps[msg.sender][participantAddress].balance = 0;\n    swaps[msg.sender][participantAddress].secret = _secret;\n\n    emit Withdraw(participantAddress, msg.sender, swap.secretHash, now);\n  }\n  // Smth Owner withdraw money and adds secret key to swap\n  // Smth Owner receive +1 reputation\n  function withdrawOther(bytes32 _secret, address _ownerAddress, address participantAddress) public {\n    Swap memory swap = swaps[_ownerAddress][participantAddress];\n\n    require(swap.secretHash == sha256(abi.encodePacked(_secret)));\n    require(swap.balance > uint256(0));\n    require(swap.createdAt.add(SafeTime) > now);\n\n    swap.targetWallet.transfer(swap.balance);\n\n    swaps[_ownerAddress][participantAddress].balance = 0;\n    swaps[_ownerAddress][participantAddress].secret = _secret;\n\n    emit Withdraw(participantAddress, _ownerAddress, swap.secretHash, now);\n  }\n\n  // ETH Owner receive secret\n  function getSecret(address _participantAddress) public view returns (bytes32) {\n    return swaps[msg.sender][_participantAddress].secret;\n  }\n\n  event Close(address _buyer, address _seller);\n\n\n\n  event Refund(address _buyer, address _seller, bytes32 _secretHash);\n\n  // ETH Owner refund money\n  // Smth Owner gets -1 reputation\n  function refund(address _participantAddress) public {\n    Swap memory swap = swaps[msg.sender][_participantAddress];\n\n    require(swap.balance > uint256(0));\n    require(swap.createdAt.add(SafeTime) < now);\n\n    msg.sender.transfer(swap.balance);\n\n    clean(msg.sender, _participantAddress);\n\n    emit Refund(_participantAddress, msg.sender, swap.secretHash);\n  }\n\n  function clean(address _ownerAddress, address _participantAddress) internal {\n    delete swaps[_ownerAddress][_participantAddress];\n  }\n}\n",
  "sourcePath": "/home/user/projects/swaps/ethswap/contracts/EthToSmthSwaps.sol",
  "compiler": {
    "name": "solc",
    "version": "0.5.16+commit.9c3226ce.Emscripten.clang"
  },
  "schemaVersion": "3.0.23",
  "updatedAt": "2020-09-09T18:53:45.189Z",
  "networkType": "ethereum",
  "devdoc": {
    "methods": {}
  },
  "userdoc": {
    "methods": {}
  }
}